:0A0000000C942A000C9400000C94EC
:10000A0000000C9400000C9400000C9400000C9466
:10001A0000000C9400000C9400000C9400000C9456
:10002A0000000C9400000C9400000C9400000C9446
:10003A0000000C9400000C9400000C9400000C9436
:10004A0000000C9400000C940000F894EE27ECBB1E
:10005A00F1E0F5BFE5BF8DE0A2E0BB27ED938A95FD
:10006A00E9F780E098E0A0E6ED930197E9F7EFE57C
:10007A00EDBFE8E0EEBFC0E6D2E00C944400E0E851
:10008A00EABBE1E0EBBBE0E0E7BBE8BBE4BBE5BB16
:10009A00E1BBE2BBE3BFE2BFECBFEFBDEEBDEDBD2E
:1000AA00ECBDE7BDE6BDEBBDEABDE9BDE8BDE2BD1D
:1000BA00E5BDE4BDE3BDE9BFE5BFE4BFEAB9E0E8F9
:1000CA00E8B9E0E0E0BFE6B9EDB9E6BFC899FECF0E
:1000DA00C89911C044245524E8EBFBE04E165F068C
:1000EA0054F4A1E0B0E00E948B00C89904C0F20168
:1000FA0031962F01F1CFE8EBFBE0E415F50521F489
:10010A00DF9AC89BFECFDF98E1CFFFCF109639F078
:10011A0080ED97E00197F1F7A8951197C9F708952F
:00000001FF
