:040000000C942A0032
:100004000C9444000C9446000C9400000C940000E2
:100014000C9400000C9400000C9400000C9400005C
:100024000C9400000C9400000C9400000C9400004C
:100034000C9400000C9400000C9400000C9400003C
:100044000C9400000C9400000C9400000C9400002C
:10005400F894EE27ECBBF1E0F5BFE5BF8DE0A2E03C
:10006400BB27ED938A95E9F780E098E0A0E6ED934D
:100074000197E9F7EFE5EDBFE8E0EEBFC0E6D2E0B7
:100084000C944800979A189597981895E0E0EABB65
:10009400EBBBE7BBE8BBE4BBE5BBE0E8E1BBECE002
:1000A400E2BBE0E0E3BFE2BFECBFEFBDEEBDEDBD00
:1000B400ECBDE7BDE6BDEBBDEABDE9BDE8BDE2BD13
:1000C400E5BDE4BDE3BDE9BFEBB7E06CEBBFE0E049
:1000D400E5BFE4BFE0ECEABFE0E0EAB9E0E8E8B994
:1000E400E0E0E0BFE6B9EDB9E6BF7894FFCFFFCF1B
:00000001FF
