:020000000C945E
:1000020030000C9400000C9400000C9400000C943E
:1000120000000C9400000C9400000C9400000C945E
:1000220000000C9400000C9400000C9400000C944E
:1000320000000C9400000C9400000C9400000C943E
:1000420000000C9400000C9400000C9400000C942E
:100052000000310080C00200600256000000F894E7
:10006200EE27ECBBF1E0F5BFE5BF8DE0A2E0BB27D8
:10007200ED938A95E9F780E098E0A0E6ED93019789
:10008200E9F7E8E5F0E085919591009761F0A59197
:10009200B59105901590BF01F00105900D92019761
:1000A200E1F7FB01F0CFEFE5EDBFE8E0EEBFC0E620
:1000B200D2E00C945C00E0E0EABBEBBBE7BBE8BB40
:1000C200E4BBE5BBE1BBE2BBE3BFE2BFECBFEFBD1C
:1000D200EEBDEDBDECBDE7BDE6BDEBBDEABDE9BDE4
:1000E200E8BDE2BDE5BDE4BDE3BDE9BFE5BFE4BFF8
:1000F200EAB9E0E8E8B9E0E0E0BFE6B9EDB9E6BFA9
:10010200A4E18CD059D0552444245A92A42D47D02E
:10011200A4E5B0E070D05394E4E1E51541F4552430
:10012200E1E0E41511F4442402C0E1E04E2EA4E61D
:10013200B0E00E94470140D0E8CFFFCFAA93E88108
:10014200E07111F0DB9A01C0DB98E881E07211F0F6
:10015200DC9A01C0DC98E881E07411F0DD9A01C0FC
:10016200DD98E881E07811F0DE9A01C0DE988DE03A
:100172008A95F1F7DA9A8DE08A95F1F7DA988DE0AF
:100182008A95F1F775C0AA93A881D8DFE881E29534
:10019200E883A881D3DF85E88A95F1F769C0AA933D
:1001A200E881F0E0E05AFD4FE081A981AE0FEBDF7C
:1001B2007980688022960895A2E05CD0ACE0E3DF0B
:1001C200A1E058D0E0E06E2E7E2E0895AA93A88179
:1001D200AA3011F0791448F0E0E0EA936394A62D76
:1001E200DEDFA881AA3009F443C07394D89AA881AB
:1001F200CADFD8983DC0BA93AA931A93E981FA81CB
:100202003196E983FA833197E4911E2FE03019F099
:10021200A12FDCDFF3CF188123960895AA93D39AF6
:10022200D49AD59AD69AD29AD09AD19ADA98D8985C
:10023200D9989880E881E058E0936202E881E0541E
:10024200E0936302A4E1B0E00E94470118D017D006
:1002520016D0A0E273DF88EC90E00197F1F7A8E2F4
:1002620092DFA4E090DFA5E88EDFA6E08CDFA4DFBA
:100272002196089588DFA3E0B0E00C944701A0E343
:100282005DDF88EC90E00197F1F70895109639F060
:1002920080ED97E00197F1F7A8951197C9F70895B6
:00000001FF
