:020000000C945E
:100002003A000C9400000C9400000C9400000C9434
:1000120000000C9400000C9400000C9400000C945E
:1000220000000C9400000C9400000C9400000C944E
:1000320000000C9400000C9400000C9400000C943E
:1000420000000C9400000C9400000C9400000C942E
:1000520000007061727361206A6168616E67697223
:100062006920706F7572000080C0020060026A0031
:100072000000F894EE27ECBBF1E0F5BFE5BF8DE0A0
:10008200A2E0BB27ED938A95E9F780E098E0A0E62D
:10009200ED930197E9F7ECE6F0E0859195910097F1
:1000A20061F0A591B59105901590BF01F001059001
:1000B2000D920197E1F7FB01F0CFEFE5EDBFE8E02C
:1000C200EEBFC0E6D2E00C946600E0E0EABBEBBB18
:1000D200E7BBE8BBE4BBE5BBE1BBE2BBE3BFE2BF1E
:1000E200ECBFEFBDEEBDEDBDECBDE7BDE6BDEBBDCA
:1000F200EABDE9BDE8BDE2BDE5BDE4BDE3BDE9BFE2
:10010200E5BFE4BFEAB9E0E8E8B9E0E0E0BFE6B99C
:10011200EDB9E6BFA4E17AD047D0E0E0EA93A0E0EF
:1001220036D0A4E5B0E05FD0FFCFFFCFAA93E8813D
:10013200E07111F0DB9A01C0DB98E881E07211F006
:10014200DC9A01C0DC98E881E07411F0DD9A01C00C
:10015200DD98E881E07811F0DE9A01C0DE988DE04A
:100162008A95F1F7DA9A8DE08A95F1F7DA988DE0BF
:100172008A95F1F775C0AA93A881D8DFE881E29544
:10018200E883A881D3DF85E88A95F1F769C0AA934D
:10019200E881F0E0E05AFD4FE081A981AE0FEBDF8C
:1001A2005980488022960895A2E05CD0ACE0E3DF5B
:1001B200A1E058D0E0E04E2E5E2E0895AA93A881C9
:1001C200AA3011F0571448F0E0E0EA934394A42DCA
:1001D200DEDFA881AA3009F443C05394D89AA881DB
:1001E200CADFD8983DC0BA93AA931A93E981FA81DB
:1001F2003196E983FA833197E4911E2FE03019F0AA
:10020200A12FDCDFF3CF188123960895AA93D39A06
:10021200D49AD59AD69AD29AD09AD19ADA98D8986C
:10022200D9987880E881E058E0936202E881E0544E
:10023200E0936302A4E1B0E00E943F0118D017D01E
:1002420016D0A0E273DF88EC90E00197F1F7A8E204
:1002520092DFA4E090DFA5E88EDFA6E08CDFA4DFCA
:100262002196089588DFA3E0B0E00C943F01A0E35B
:100272005DDF88EC90E00197F1F70895109639F070
:1002820080ED97E00197F1F7A8951197C9F70895C6
:00000001FF
